:0300000002017882
:0C017800787FE4F6D8FD7581170201BF06
:1002B800456E7465722050617373776F7264004184
:1002C8006363657373206772616E7465640041636C
:0B02D8006573732044656E6965640067
:0603A5000408313233347C
:04030E007F647E008A
:04031200AB07AA0685
:100316009000007C047DFBAF03AE021202FCD3E525
:10032600829FEE6480F8E5836480985003A380E39F
:0103360022A4
:100375008F90C2A0C2A1D2A27F057E00120312C235
:08038500A27F057E00020312B5
:10038D008F90D2A0C2A1D2A27F057E00120312C20D
:08039D00A27F057E000203129D
:100337008B108A118912AB10AA11A9121202E3605D
:10034700130512E5127002051114F91202E3FF12E8
:05035700038D80E2228D
:10035C007F381203757F011203757F0F1203757FAF
:09036C00061203757F800203757F
:10000300C3E5119404E510648094804003020177F2
:10001300C2B0D2B3D2B2D2B120B41A7F3112038D9F
:1000230012030E740C2511F8763112030E0511E537
:10003300117002051020B5177F3212038D740C2541
:1000430011F8763212030E0511E511700205102026
:10005300B6177F3312038D740C2511F87633120310
:100063000E0511E51170020510C2B1D2B3D2B2D29E
:10007300B020B4177F3412038D740C2511F8763435
:1000830012030E0511E5117002051020B5177F3517
:1000930012038D740C2511F8763512030E0511E544
:1000A300117002051020B6177F3612038D740C25CC
:1000B30011F8763612030E0511E51170020510C210
:1000C300B2D2B3D2B1D2B020B4177F3712038D743A
:1000D3000C2511F8763712030E0511E51170020590
:1000E3001020B5177F3812038D740C2511F876385C
:1000F30012030E0511E5117002051020B6177F39A2
:1001030012038D740C2511F8763912030E0511E5CF
:100113001170020510C2B3D2B2D2B1D2B020B4175B
:100123007F2A12038D740C2511F8762A12030E050B
:1001330011E5117002051020B5177F3012038D747D
:100143000C2511F8763012030E0511E51170020526
:100153001030B6030200037F2312038D740C2511A4
:10016300F8762312030E0511E5116003020003055F
:040173001002000373
:010177002265
:1002730012035C7BFF7A0279B81203377FC0120343
:100283007512000375130075140075150C751600AF
:100293007517047B007A007908120204EF700B7B58
:1002A300FF7A0279C712033780D77BFF7A0279D6A8
:0502B30012033780CCAE
:10018400020273E493A3F8E493A34003F68001F21C
:1001940008DFF48029E493A3F85407240CC8C3337C
:1001A400C4540F4420C8834004F456800146F6DF4B
:1001B400E4800B01020408102040809003A5E47E33
:1001C400019360BCA3FF543F30E509541FFEE49340
:1001D400A360010ECF54C025E060A840B8E493A307
:1001E400FAE493A3F8E493A3C8C582C8CAC583CA32
:1001F400F0A3C8C582C8CAC583CADFE9DEE780BEEA
:0103AB000051
:1002E300BB010689828A83E0225002E722BBFE0219
:0902F300E32289828A83E493224C
:1002FC00EF8DF0A4A8F0CF8CF0A428CE8DF0A42E16
:02030C00FE22CF
:100204008B108A118912AB13AA14A9151202E3FEEA
:10021400AB10AA11A9121202E3FF6E702BEF600D4E
:10022400E51715177002151614451670037F002282
:1002340074012512F512E43511F51174012515F533
:1002440015E43514F51480BEAB10AA11A9121202DC
:10025400E3FDD3EE6480F8ED64809840037F0122CF
:0F026400AB13AA14A9151202E3FFC3ED9FFF22EB
:00000001FF
